:020000040800F2
:1000000048050020CD010008D1010008D3010008F7
:10001000D5010008D7010008D90100080000000040
:10002000000000000000000000000000DB010008EC
:10003000DD01000800000000DF010008E101000808
:10004000E3010008E3010008E3010008E301000800
:10005000E3010008E3010008E3010008E3010008F0
:10006000E3010008E3010008E3010008E3010008E0
:10007000E3010008E3010008E3010008E3010008D0
:10008000E3010008E3010008E3010008E3010008C0
:10009000E3010008E3010008E3010008E3010008B0
:1000A000E3010008E3010008E3010008E3010008A0
:1000B000E301000885040008E3010008E3010008EB
:1000C000E3010008E3010008E3010008E301000880
:1000D000E301000861060008E3010008E3010008ED
:1000E000E3010008E3010008E3010008E301000860
:1000F000E3010008E3010008E3010008E301000850
:10010000E3010008E3010008A1050008E30100087D
:10011000E3010008E3010008E3010008E30100082F
:10012000E3010008E3010008E3010008E30100081F
:1001300000F002F800F03AF80AA090E8000C8244BF
:100140008344AAF10107DA4501D100F02FF8AFF29C
:10015000090EBAE80F0013F0010F18BFFB1A43F0A5
:1001600001031847880F0000A80F0000103A24BFB1
:1001700078C878C1FAD8520724BF30C830C144BF0C
:1001800004680C607047000000230024002500264E
:10019000103A28BF78C1FBD8520728BF30C148BFEA
:1001A0000B6070471FB51FBD10B510BD00F02DF8D6
:1001B0001146FFF7F7FF00F0B9FA00F04BF803B46F
:1001C000FFF7F2FF03BC00F08DFA0000084800477B
:1001D000FEE7FEE7FEE7FEE7FEE7FEE7FEE7FEE7F7
:1001E000FEE7FEE703480449024A044B704700005B
:1001F0003101000848010020480500204801002086
:1002000070477047704770477047754600F028F890
:10021000AE4605006946534620F00700854618B0F3
:1002200020B5FFF7DFFFBDE820404FF000064FF09C
:1002300000074FF000084FF0000B21F00701AC461B
:10024000ACE8C009ACE8C009ACE8C009ACE8C0093A
:100250008D4670470446AFF300802046FFF7AFFF9E
:1002600000487047E40000201848806940F008000A
:10027000164988610846806940F04000886114484A
:10028000006820F47000124908600846006840F4D5
:10029000401008600E480C30006840F020000C4907
:1002A0000C3108600B48006820F4700009490860B0
:1002B0000846006840F44010086006480C300068AA
:1002C00040F0200003490C310860704700100240E4
:1002D000000C01400018014000B5002015490861DC
:1002E000C8601420486100208861C8610846006821
:1002F00040F001000860084640680F4908400D4979
:100300004860084600680D4908400A4908600846E8
:10031000006820F4802008600846406820F4FE0051
:1003200048600020886000214FF0006000F05AF81B
:1003300000BD0000001002400000FFF8FFFFF6FEC5
:100340002DE9F0410746884614461D46284600F030
:1003500035F8C5F1040007FA00F60F20284100EA3D
:100360000800064306F00F06E21704EBD2625211B2
:100370004FF0E02303EB8202D2F800212146E3177D
:1003800004EBD3635B11A4EB431C012303FA0CF3CE
:100390001A432046E31704EBD3635B114FF0E02CC4
:1003A0000CEB8303C3F800210348005D40EA06100C
:1003B00001490855BDE8F08100E400E0014607234B
:1003C00023EA01021202054B18684FF6FF0318409A
:1003D000034B18431043014B186070470CED00E0CD
:1003E0000000FA05024A0A400243024B1A607047B5
:1003F00080FFFF1F08ED00E030B504460025FFF741
:100400006BFF1E48006840F480301C49086000BF44
:100410001A480068400CFBD04FF4806017494860D0
:10042000A01EC4B20846406840EA844048600846BE
:10043000406840F4803048601148006840F0320065
:100440000F4908600D48006840F080700B49086053
:1004500000BF0A480068400EFBD00848406840F0E2
:1004600002000649486005E004484068C0F387057B
:1004700005F00305022DF7D130BD00000010024049
:10048000002002400948008810F0010F07D00848FA
:10049000006808B9012000E0002005490860034811
:1004A000008820F0010001490880704710040040D6
:1004B000940123422C4AD26942F004022A4BDA61A9
:1004C0001A46926942F008029A61284A126822F09C
:1004D0007F42264B1A601A46126842F03B421A606D
:1004E000214A926942F001021F4B9A61204A5268E8
:1004F00022F480521E4B5A601E4A1080121F118037
:100500001C4A143A128842F070021A4B143B1A80AB
:100510001A46128842F008021A80164A0C3A1288CB
:1005200042F00102134B0C3B1A80124A143A128813
:1005300042F4E0420F4B143B1A801A46128842F4F0
:1005400000621A800B4A0C3A128842F01002094BE2
:100550000C3B1A808022074B2C3B1A801A461288CB
:1005600042F001021A80704700100240000C014066
:10057000000001402C08004040F21A200749088082
:1005800040F22F20091D088004483438008840F0CC
:1005900001000249343908807047000034080040E7
:1005A0002C4908882C49097811F0800F4ED110F0A1
:1005B000010F1AD02849097811F0400F15D02649AB
:1005C000097801F03F013F290AD12349097841F018
:1005D0008001214A11704FF6FF71204A118004E01A
:1005E0001D490978491C1C4A117010F0020F2DD0CA
:1005F0001949097811F0400F13D01749097841F0D3
:100600008001154A1170134924310988134A118059
:1006100010491031098821F002010E4A1032118070
:1006200014E000210C4A11700C4A11800A49097823
:1006300041F04001084A11700021064A143211802D
:10064000111F098841F00201121F11800021014A87
:1006500011807047100C0040180000201A00002084
:100660001D49098811F0200F34D01B49091D098844
:10067000C8B21A49098811F4004F2BD117490988CB
:1006800011F4804F0CD00A2803D00021134A1180A6
:1006900020E01249098841F40041104A118019E014
:1006A0000D2806D10D49098841F480410B4A11807B
:1006B00010E00A490988C1F30D01094A505407495D
:1006C0000988491C054A118011460988C72901DD9E
:1006D0000021118070470000003801401000002008
:1006E0001C000020014600BF704700004FF0E021D1
:1006F000096921F004014FF0E0221161C21700EBFB
:100700005272C2F3C702074B1A701946097801EBFF
:100710004102C2EBC1114FF6FF7202EAC101024A67
:1007200011807047000000200200002000BF00BFC1
:10073000002500BF002400BF0920FFF75DFE4FF435
:10074000E131482000F07CF84820FFF7CFFFFFF7A9
:100750008BFDD92140F2E730FFF7ACFEFFF70CFF2D
:1007600015E00B48008810F4004F10D000BF094876
:1007700045788478142D00DB1425142C00DB142418
:100780002146284600F008F8002001490880E8E7E3
:10079000100000201C0000202DE9FC5F81468A46E5
:1007A0004FF0000B0020019000240090B9F1140FCD
:1007B00001DB4FF01409BAF1140F01DB4FF0140AFA
:1007C000A9F10A04002C0CDD204600F0D6F80746FB
:1007D0004FF03332144B00F0E7F8054600F09EF876
:1007E0000446002C0BDD204600F0C7F805460F4AF2
:1007F0000F4B00F0D9F8074600F090F80446AAF134
:100800000A0000900B480088A0EB040B0A480188FE
:100810000098081A01900949A1F800B0091D019833
:100820000880BDE8FC9F00003333F33FCDCCCCCC37
:10083000CCCCEC3F0A0000200C0000203408004023
:100840002DE9F05F05460E46300100F0EFFA8146D3
:100850002E4905FB01F000F0E9FA8246494600F016
:1008600003FA0746384600F0C1FA84B2204600F089
:10087000DDFA8346394600F0B9FB82464FF08341EA
:1008800000F0E8FA814600F0B1FA80464FF6FF70BA
:1008900000EA041404EB080084B21D48806940F0AB
:1008A00004001B4988610846806940F480408861E3
:1008B0001848006820F47F60164908600846006800
:1008C00040F40B6008601248C06840F48040104952
:1008D000C8600846C06820F48040C8600E480480A4
:1008E000001D008842F20C0108430B49091D0880D5
:1008F0000846008840F020000880022325220321BA
:100900000846FFF71DFDBDE8F09F000040420F00C4
:100910000010024004080140083801404FEA41033A
:100920004FEA5353A3F58063D3F11E03C8BFD3F13D
:10093000210C0CDD4FF0004242EAC12242EA505243
:1009400032FA03FC8CEAE17CACEBE1707047102BCF
:10095000C4BF0020704703F5787CBCF1FF3F04D092
:100960006FF0004282EA2100704770B500F0C6F8CF
:100970004992248000207047F2E710F0004248BFFF
:100980004042B0FA80F310FA03F10AD0C3F11D031C
:1009900003F580634FEA415002EB035202EBD12191
:1009A00070474FF000007047DFF848C170B51CEA8F
:1009B000111E1EBF1CEA13159EEA0C0F95EA0C0FC0
:1009C00000F06F8081EA030423EA4C134EEAD47EE0
:1009D00021EA4C1141F4801143F48013AE44A1FB91
:1009E000024CA0FB0365AEF17F7E361955EB0C057A
:1009F000A1FB034C4CF10003A0FB021C16EB0C0600
:100A0000654153F10003094218BF46F0010613F493
:100A1000007F0BD14FEA03314FEA0530340341EA3E
:100A2000155140EA16506FF003020AE04FEAC32165
:100A30004FEAC520F40241EA555140EA56506FF0A2
:100A4000020202EB2E4201EB025585EACE710AD07A
:100A50005FEA440C18BF24F0004450F1000041F15B
:100A6000000120EAD47040F2FE7C624500D270BDE5
:100A7000A84214BF4FF080444FF04044002E08BFFE
:100A80000024BEF1806FA8BFA1F1C041BDE8704055
:100A900080F282804FF0000001F1C04101F000417E
:100AA00070479EEA0C0F0CEA131518BF95EA0C0F5D
:100AB00006D04FF0000081EA030E0EF0004170BD39
:100AC00000F01CF88900013E00F007B800F009B8FA
:100AD0004FEA430C5FEA5C5C08D081EA030100F056
:100AE0005BB84FEA410C5FEA5C5CF6D14FF0000066
:100AF000014970470000FF070000F87F0EF1020E69
:100B00002EF0030E5EF8046B364205D4012A43EB47
:100B1000030515F5001F12D8012841EB010C1CF547
:100B2000001F0CD80ED14FEAD17C15F5001F0CEB3D
:100B30004C0C0CF1020C08BF4CEBD37C04E04FF0E2
:100B4000080C01E04FEAD37C0CEB4C0526FA05F6C5
:100B500006F00706B6F1040C06D20EEB860CBDE8D3
:100B600070404CF0010C6047DFE80CF0090B02020A
:100B70004FF000414FF00000A1F5002170BD194673
:100B80001046012851EB010418BFD4F5001484BFAE
:100B9000002001F0004170BD0808A0F500114FEAE7
:100BA0003101704790EA010F48BF81F0004100F128
:100BB0002E82421A3CBF801A89184FEAD0524FF059
:100BC0007F4C1CEA410FA2EBD15318BF9CEA026F85
:100BD00000F03B804FF0004C4CEA00204CEA012131
:100BE00021FA03FC10EB0C0C1ED202F1FF325FEA7B
:100BF0001C2040EBC25038BF70471CF07F0F4FEAFB
:100C0000400C18BFBCF17F4F38BF7047C3F12003C1
:100C1000994008BF20F00100BCF17F4F38BF7047FA
:100C2000A0F1C04000F0DDB94FEA3C00000A40EB03
:100C3000C25028BF1CF0FF0F4FEA400CE6D018BF8F
:100C4000BCF17F4F38BF7047EAE79CEA026F05D0DE
:100C500010EA5C0F08BF00F00040704710B500F0CC
:100C60007AF900BF64FBBE3E4FF47F0C1CEAD01241
:100C70001EBF1CEAD11392EA0C0F93EA0C0F00F08E
:100C8000858090EA010F48BF42F4807240F4000C66
:100C900041F400002CF07F4120F07F4000B58142FC
:100CA000A2EB03020FF2081CACEB504EC0F10000A7
:100CB0009EF800E04FEA4E0E00FB0EFC38BF4900E4
:100CC0004FEA2C1C02F5FA020CFB0EF34FEACE1E83
:100CD0004FEA112C4FEAC1210EEB635E42EB224238
:100CE0000EFB0CFC4FEA1C5300FB03114FEA112CC6
:100CF0004FEA01310EFB0CFC4FEADC4C00FB0C11FF
:100D0000C14228BF09184CEB03335DF804EB10EB2C
:100D1000410143EBC250B2F57C0F38BF704729D573
:100D200012F0F00F1CBF00F1C04000F0004070470F
:100D3000008182838485868788898B8C8D8E8F91B4
:100D40009293959697999A9C9D9FA0A2A3A5A7A8D8
:100D5000AAACAEB0B2B3B5B7B9BCBEC0C2C5C7C904
:100D6000CCCED1D4D7D9DCDFE2E6E9ECF0F3F7FA68
:100D7000FE0000004FEA400C0CF1807CBCF17E4F7D
:100D800028BF7047B0F1C04000F02BB990EA010FC6
:100D90000CEAD11348BF42F48072624538BF634504
:100DA00007D213F47F0F16D080EA010000F0004054
:100DB000704710B500F0CFF8097EFC3E00F005B892
:100DC00080EA010000F00040704780EA010000F076
:100DD000004000F006B912F47F0F04BF02487047CC
:100DE00080EA010000F0FDB80000C07FC10DD1F124
:100DF0009E0206DB4FEA002343F0004323FA02F091
:100E00007047004207D54FEA4001B1F1FE4F02D2D0
:100E10004FF00000704710B500F09DF84992248013
:100E2000002070476FEA200070470000B0FA80F39E
:100E300010FA03F2C3F19D030AD0D90501EB122089
:100E4000530638BF704700F1010008BF20F00100D1
:100E5000704700004FF47F0C1CEAD0121EBF1CEA42
:100E6000D11392EA0C0F93EA0C0F00F0478090EA3E
:100E7000010F48BF42F480724FF0004C4CEA002052
:100E80004CEA012102EB0302A0FB0113A2F50002D0
:100E9000002918BF43F001035B0028BF4FEA33036A
:100EA00042EB22425FEA132C4CEBC2502EBFBCEB4C
:100EB000436FB2F57C0F70474FEA036CBCF1004FF3
:100EC00008BF20F00100B2F57C0F38BF70470BD58A
:100ED00082F0FF0212F5803FC8BF704700F1C040AA
:100EE000D8BF00F00040704700F5000C5FEA4C0CE2
:100EF00048BF7047B0F1C04000F073B890EA010FEE
:100F00000CEAD11348BF42F48072624538BF634592
:100F100004D280EA010000F00040704710B500F0F4
:100F20001AF800BF8900013E00F007B800F009B8C8
:100F30005FEA410C5FEA1C6C08D080EA010000F017
:100F400050B85FEA400C5FEA1C6CF6D14FF00040ED
:100F5000A0F5800070470EF1020E2EF0030E5EF831
:100F6000044B244204D44FEA4102B2F17F4F11D81E
:100F70004FEA4003B3F17F4F0CD80ED14FEAD07C3B
:100F8000B2F17F4F0CEB4C0C0CF1020C08BF4CEB98
:100F9000D17C04E04FF0080C01E04FEAD17C0CEB6F
:100FA0004C0324FA03F404F00704B4F1040C06D251
:100FB0000EEB840CBDE810404CF0010C6047DFE8FC
:100FC0000CF0070802024FF00040A0F5800010BDB1
:100FD0000846420018BFD2F1807288BF00F000407E
:100FE00010BDFF2141EAD050C005704780F000409D
:100FF00090EA010F7FF5DDAD81F0004100F007B808
:1010000090EA010F48BF81F000413FF5D2AD421A8E
:1010100004D882F00042A0EB020011444FEAD05203
:101020004FF07F4C1CEA410FA2EBD15318BF9CEA52
:10103000026F4AD04FF0004C4CEA00204CEA0121EC
:1010400021FA03FCB0EB0C0C0FD412F0FE0F36D0DB
:101050005FEA4C001DD5001240EBC25038BF70470C
:101060001CF03F0F18BF70470BE0A2F101025FEACE
:101070001C2040EBC25038BF70471CF07F0F18BFD8
:101080007047C3F12003994014BF401E20F00100B7
:10109000704780084FEA122308BF7047B0FA80FCFF
:1010A000A2EB0C02CCF1280C60FA0CF093EA122FA0
:1010B00004BF00EBC25070474FEAC3707047130A79
:1010C0005FEADC1008BF7047F6E79CEA026F04D0C5
:1010D00010EA5C0F08BF0020704710B5FFF73BFF18
:1010E00040DFF63E81F00040704700000C11000820
:1010F000000000201C0000006C01000828110008FE
:101100001C0000202C0500008801000800000000E1
:101110000000000000001A022F0200000000000082
:081120000000000000000000C7
:0400000508000131BD
:00000001FF
